{
  "contractName": "Counter",
  "abi": [
    {
      "inputs": [
        {
          "internalType": "uint256",
          "name": "startingValue",
          "type": "uint256"
        }
      ],
      "stateMutability": "nonpayable",
      "type": "constructor"
    },
    {
      "anonymous": false,
      "inputs": [
        {
          "indexed": true,
          "internalType": "address",
          "name": "owner",
          "type": "address"
        },
        {
          "indexed": false,
          "internalType": "uint256",
          "name": "value",
          "type": "uint256"
        }
      ],
      "name": "OwnerSetValue",
      "type": "event"
    },
    {
      "anonymous": false,
      "inputs": [
        {
          "indexed": true,
          "internalType": "address",
          "name": "previousOwner",
          "type": "address"
        },
        {
          "indexed": true,
          "internalType": "address",
          "name": "newOwner",
          "type": "address"
        }
      ],
      "name": "OwnershipTransferred",
      "type": "event"
    },
    {
      "inputs": [],
      "name": "owner",
      "outputs": [
        {
          "internalType": "address",
          "name": "",
          "type": "address"
        }
      ],
      "stateMutability": "view",
      "type": "function"
    },
    {
      "inputs": [],
      "name": "renounceOwnership",
      "outputs": [],
      "stateMutability": "nonpayable",
      "type": "function"
    },
    {
      "inputs": [
        {
          "internalType": "address",
          "name": "newOwner",
          "type": "address"
        }
      ],
      "name": "transferOwnership",
      "outputs": [],
      "stateMutability": "nonpayable",
      "type": "function"
    },
    {
      "inputs": [],
      "name": "get",
      "outputs": [
        {
          "internalType": "uint256",
          "name": "",
          "type": "uint256"
        }
      ],
      "stateMutability": "view",
      "type": "function"
    },
    {
      "inputs": [],
      "name": "inc",
      "outputs": [],
      "stateMutability": "nonpayable",
      "type": "function"
    },
    {
      "inputs": [],
      "name": "dec",
      "outputs": [],
      "stateMutability": "nonpayable",
      "type": "function"
    },
    {
      "inputs": [
        {
          "internalType": "uint256",
          "name": "newCount",
          "type": "uint256"
        }
      ],
      "name": "setCount",
      "outputs": [],
      "stateMutability": "nonpayable",
      "type": "function"
    }
  ],
  "bytecode": "0x608060405234801561001057600080fd5b5060405161097f38038061097f83398181016040528101906100329190610162565b61004e61004361005b60201b60201c565b61006360201b60201c565b806001819055505061018f565b600033905090565b60008060009054906101000a900473ffffffffffffffffffffffffffffffffffffffff169050816000806101000a81548173ffffffffffffffffffffffffffffffffffffffff021916908373ffffffffffffffffffffffffffffffffffffffff1602179055508173ffffffffffffffffffffffffffffffffffffffff168173ffffffffffffffffffffffffffffffffffffffff167f8be0079c531659141344cd1fd0a4f28419497f9722a3daafe3b4186f6b6457e060405160405180910390a35050565b600080fd5b6000819050919050565b61013f8161012c565b811461014a57600080fd5b50565b60008151905061015c81610136565b92915050565b60006020828403121561017857610177610127565b5b60006101868482850161014d565b91505092915050565b6107e18061019e6000396000f3fe608060405234801561001057600080fd5b506004361061007d5760003560e01c80638da5cb5b1161005b5780638da5cb5b146100b4578063b3bcfa82146100d2578063d14e62b8146100dc578063f2fde38b146100f85761007d565b8063371303c0146100825780636d4ce63c1461008c578063715018a6146100aa575b600080fd5b61008a610114565b005b61009461012f565b6040516100a191906104b5565b60405180910390f35b6100b2610139565b005b6100bc6101c1565b6040516100c99190610511565b60405180910390f35b6100da6101ea565b005b6100f660048036038101906100f1919061055d565b610205565b005b610112600480360381019061010d91906105b6565b6102d9565b005b60018060008282546101269190610612565b92505081905550565b6000600154905090565b6101416103d0565b73ffffffffffffffffffffffffffffffffffffffff1661015f6101c1565b73ffffffffffffffffffffffffffffffffffffffff16146101b5576040517f08c379a00000000000000000000000000000000000000000000000000000000081526004016101ac906106c5565b60405180910390fd5b6101bf60006103d8565b565b60008060009054906101000a900473ffffffffffffffffffffffffffffffffffffffff16905090565b60018060008282546101fc91906106e5565b92505081905550565b61020d6103d0565b73ffffffffffffffffffffffffffffffffffffffff1661022b6101c1565b73ffffffffffffffffffffffffffffffffffffffff1614610281576040517f08c379a0000000000000000000000000000000000000000000000000000000008152600401610278906106c5565b60405180910390fd5b806001819055503373ffffffffffffffffffffffffffffffffffffffff167f55b709cd4864cda7f575870b09b21588a004c3459605114621b9337b1a30b427826040516102ce91906104b5565b60405180910390a250565b6102e16103d0565b73ffffffffffffffffffffffffffffffffffffffff166102ff6101c1565b73ffffffffffffffffffffffffffffffffffffffff1614610355576040517f08c379a000000000000000000000000000000000000000000000000000000000815260040161034c906106c5565b60405180910390fd5b600073ffffffffffffffffffffffffffffffffffffffff168173ffffffffffffffffffffffffffffffffffffffff16036103c4576040517f08c379a00000000000000000000000000000000000000000000000000000000081526004016103bb9061078b565b60405180910390fd5b6103cd816103d8565b50565b600033905090565b60008060009054906101000a900473ffffffffffffffffffffffffffffffffffffffff169050816000806101000a81548173ffffffffffffffffffffffffffffffffffffffff021916908373ffffffffffffffffffffffffffffffffffffffff1602179055508173ffffffffffffffffffffffffffffffffffffffff168173ffffffffffffffffffffffffffffffffffffffff167f8be0079c531659141344cd1fd0a4f28419497f9722a3daafe3b4186f6b6457e060405160405180910390a35050565b6000819050919050565b6104af8161049c565b82525050565b60006020820190506104ca60008301846104a6565b92915050565b600073ffffffffffffffffffffffffffffffffffffffff82169050919050565b60006104fb826104d0565b9050919050565b61050b816104f0565b82525050565b60006020820190506105266000830184610502565b92915050565b600080fd5b61053a8161049c565b811461054557600080fd5b50565b60008135905061055781610531565b92915050565b6000602082840312156105735761057261052c565b5b600061058184828501610548565b91505092915050565b610593816104f0565b811461059e57600080fd5b50565b6000813590506105b08161058a565b92915050565b6000602082840312156105cc576105cb61052c565b5b60006105da848285016105a1565b91505092915050565b7f4e487b7100000000000000000000000000000000000000000000000000000000600052601160045260246000fd5b600061061d8261049c565b91506106288361049c565b9250827fffffffffffffffffffffffffffffffffffffffffffffffffffffffffffffffff0382111561065d5761065c6105e3565b5b828201905092915050565b600082825260208201905092915050565b7f4f776e61626c653a2063616c6c6572206973206e6f7420746865206f776e6572600082015250565b60006106af602083610668565b91506106ba82610679565b602082019050919050565b600060208201905081810360008301526106de816106a2565b9050919050565b60006106f08261049c565b91506106fb8361049c565b92508282101561070e5761070d6105e3565b5b828203905092915050565b7f4f776e61626c653a206e6577206f776e657220697320746865207a65726f206160008201527f6464726573730000000000000000000000000000000000000000000000000000602082015250565b6000610775602683610668565b915061078082610719565b604082019050919050565b600060208201905081810360008301526107a481610768565b905091905056fea26469706673582212209b43c702851aed2857b5ad05b6cfd904a911fbf8fd6b45c537e7ec65aa79560a64736f6c634300080d0033",
  "immutableReferences": {},
  "source": "// SPDX-License-Identifier: MIT\npragma solidity >=0.4.22 <0.9.0;\n\nimport \"@openzeppelin/contracts/access/Ownable.sol\";\n\n\n// everyone can increment and decrement, but only the owner can set an arbitrary value\ncontract Counter is Ownable {\n\n    event OwnerSetValue(address indexed owner, uint256 value);\n\n    constructor(uint256 startingValue) {\n        count = startingValue;\n    }\n\n    uint256 internal count;\n\n    function get() public view returns (uint) {\n        return count;\n    }\n\n    function inc() public {\n    // This function will fail if count = 2 ** 256 - 1\n        count += 1;\n    }\n\n    function dec() public {\n        // This function will fail if count = 0\n        count -= 1;\n    }\n\n    function setCount(uint256 newCount) external onlyOwner {\n        count = newCount;\n        emit OwnerSetValue(msg.sender, newCount);\n    }\n}\n",
  "sourcePath": "C:\\Users\\thoms\\vs-repos\\truffle-sample\\contracts\\Counter.sol",
  "compiler": {
    "name": "solc",
    "version": "0.8.13+commit.abaa5c0e.Emscripten.clang"
  },
  "schemaVersion": "3.4.6",
  "updatedAt": "2022-06-22T15:34:41.712Z",
  "devdoc": {
    "kind": "dev",
    "methods": {
      "owner()": {
        "details": "Returns the address of the current owner."
      },
      "renounceOwnership()": {
        "details": "Leaves the contract without owner. It will not be possible to call `onlyOwner` functions anymore. Can only be called by the current owner. NOTE: Renouncing ownership will leave the contract without an owner, thereby removing any functionality that is only available to the owner."
      },
      "transferOwnership(address)": {
        "details": "Transfers ownership of the contract to a new account (`newOwner`). Can only be called by the current owner."
      }
    },
    "version": 1
  },
  "userdoc": {
    "kind": "user",
    "methods": {},
    "version": 1
  }
}