{
  "contractName": "Storage",
  "abi": [
    {
      "inputs": [
        {
          "components": [
            {
              "internalType": "uint256",
              "name": "x",
              "type": "uint256"
            },
            {
              "internalType": "uint256",
              "name": "y",
              "type": "uint256"
            }
          ],
          "internalType": "struct Storage.Struct256",
          "name": "_bigStruct",
          "type": "tuple"
        },
        {
          "components": [
            {
              "internalType": "uint128",
              "name": "x",
              "type": "uint128"
            },
            {
              "internalType": "uint128",
              "name": "y",
              "type": "uint128"
            }
          ],
          "internalType": "struct Storage.Struct128",
          "name": "_smallStruct",
          "type": "tuple"
        }
      ],
      "stateMutability": "nonpayable",
      "type": "constructor"
    },
    {
      "inputs": [],
      "name": "bigStruct",
      "outputs": [
        {
          "internalType": "uint256",
          "name": "x",
          "type": "uint256"
        },
        {
          "internalType": "uint256",
          "name": "y",
          "type": "uint256"
        }
      ],
      "stateMutability": "view",
      "type": "function",
      "constant": true
    },
    {
      "inputs": [],
      "name": "boolean",
      "outputs": [
        {
          "internalType": "bool",
          "name": "",
          "type": "bool"
        }
      ],
      "stateMutability": "view",
      "type": "function",
      "constant": true
    },
    {
      "inputs": [],
      "name": "data",
      "outputs": [
        {
          "internalType": "bytes",
          "name": "",
          "type": "bytes"
        }
      ],
      "stateMutability": "view",
      "type": "function",
      "constant": true
    },
    {
      "inputs": [],
      "name": "deployer",
      "outputs": [
        {
          "internalType": "address",
          "name": "",
          "type": "address"
        }
      ],
      "stateMutability": "view",
      "type": "function",
      "constant": true
    },
    {
      "inputs": [],
      "name": "smallInt",
      "outputs": [
        {
          "internalType": "uint8",
          "name": "",
          "type": "uint8"
        }
      ],
      "stateMutability": "view",
      "type": "function",
      "constant": true
    },
    {
      "inputs": [],
      "name": "smallStruct",
      "outputs": [
        {
          "internalType": "uint128",
          "name": "x",
          "type": "uint128"
        },
        {
          "internalType": "uint128",
          "name": "y",
          "type": "uint128"
        }
      ],
      "stateMutability": "view",
      "type": "function",
      "constant": true
    },
    {
      "inputs": [
        {
          "internalType": "uint256",
          "name": "",
          "type": "uint256"
        }
      ],
      "name": "uintarray",
      "outputs": [
        {
          "internalType": "uint256",
          "name": "",
          "type": "uint256"
        }
      ],
      "stateMutability": "view",
      "type": "function",
      "constant": true
    },
    {
      "inputs": [
        {
          "internalType": "uint256",
          "name": "x",
          "type": "uint256"
        },
        {
          "internalType": "uint256",
          "name": "y",
          "type": "uint256"
        }
      ],
      "name": "setStruct256Both",
      "outputs": [],
      "stateMutability": "nonpayable",
      "type": "function"
    },
    {
      "inputs": [
        {
          "internalType": "uint256",
          "name": "x",
          "type": "uint256"
        }
      ],
      "name": "setStruct256Single",
      "outputs": [],
      "stateMutability": "nonpayable",
      "type": "function"
    },
    {
      "inputs": [
        {
          "internalType": "uint128",
          "name": "x",
          "type": "uint128"
        },
        {
          "internalType": "uint128",
          "name": "y",
          "type": "uint128"
        }
      ],
      "name": "setStruct128Both",
      "outputs": [],
      "stateMutability": "nonpayable",
      "type": "function"
    },
    {
      "inputs": [
        {
          "internalType": "uint128",
          "name": "x",
          "type": "uint128"
        }
      ],
      "name": "setStruct128Single",
      "outputs": [],
      "stateMutability": "nonpayable",
      "type": "function"
    },
    {
      "inputs": [
        {
          "internalType": "bytes",
          "name": "longData",
          "type": "bytes"
        }
      ],
      "name": "setData",
      "outputs": [],
      "stateMutability": "nonpayable",
      "type": "function"
    },
    {
      "inputs": [],
      "name": "readBigStorageStructBoth",
      "outputs": [
        {
          "internalType": "uint256",
          "name": "",
          "type": "uint256"
        },
        {
          "internalType": "uint256",
          "name": "",
          "type": "uint256"
        }
      ],
      "stateMutability": "view",
      "type": "function",
      "constant": true
    },
    {
      "inputs": [],
      "name": "readBigStorageStructSingle",
      "outputs": [
        {
          "internalType": "uint256",
          "name": "",
          "type": "uint256"
        }
      ],
      "stateMutability": "view",
      "type": "function",
      "constant": true
    },
    {
      "inputs": [],
      "name": "readSmallStorageStructBoth",
      "outputs": [
        {
          "internalType": "uint256",
          "name": "",
          "type": "uint256"
        },
        {
          "internalType": "uint256",
          "name": "",
          "type": "uint256"
        }
      ],
      "stateMutability": "view",
      "type": "function",
      "constant": true
    },
    {
      "inputs": [],
      "name": "readSmallStorageStructSingle",
      "outputs": [
        {
          "internalType": "uint256",
          "name": "",
          "type": "uint256"
        }
      ],
      "stateMutability": "view",
      "type": "function",
      "constant": true
    }
  ],
  "bytecode": "0x60806040527fffffffffffffffffffffffffffffffffffffffffffffffffffffffffffffffff6002556fffffffffffffffffffffffffffffffff801660035533600760006101000a81548173ffffffffffffffffffffffffffffffffffffffff021916908373ffffffffffffffffffffffffffffffffffffffff1602179055506001600760146101000a81548160ff02191690831515021790555060ff600760156101000a81548160ff021916908360ff160217905550348015620000c357600080fd5b5060405162000f9c38038062000f9c8339818101604052810190620000e9919062000372565b816004600082015181600001556020820151816001015590505080600660008201518160000160006101000a8154816fffffffffffffffffffffffffffffffff02191690836fffffffffffffffffffffffffffffffff16021790555060208201518160000160106101000a8154816fffffffffffffffffffffffffffffffff02191690836fffffffffffffffffffffffffffffffff1602179055509050505050620003b9565b6000604051905090565b600080fd5b600080fd5b6000601f19601f8301169050919050565b7f4e487b7100000000000000000000000000000000000000000000000000000000600052604160045260246000fd5b620001ee82620001a3565b810181811067ffffffffffffffff8211171562000210576200020f620001b4565b5b80604052505050565b6000620002256200018f565b9050620002338282620001e3565b919050565b6000819050919050565b6200024d8162000238565b81146200025957600080fd5b50565b6000815190506200026d8162000242565b92915050565b6000604082840312156200028c576200028b6200019e565b5b62000298604062000219565b90506000620002aa848285016200025c565b6000830152506020620002c0848285016200025c565b60208301525092915050565b60006fffffffffffffffffffffffffffffffff82169050919050565b620002f381620002cc565b8114620002ff57600080fd5b50565b6000815190506200031381620002e8565b92915050565b6000604082840312156200033257620003316200019e565b5b6200033e604062000219565b90506000620003508482850162000302565b6000830152506020620003668482850162000302565b60208301525092915050565b600080608083850312156200038c576200038b62000199565b5b60006200039c8582860162000273565b9250506040620003af8582860162000319565b9150509250929050565b610bd380620003c96000396000f3fe608060405234801561001057600080fd5b50600436106101005760003560e01c806395e1f2b511610097578063c5b57bdb11610066578063c5b57bdb1461027a578063d4c55c6814610298578063d5f39488146102b7578063db301030146102d557610100565b806395e1f2b514610207578063a7d5ad4a14610226578063ab62f0e114610242578063b65248df1461025e57610100565b806370cf8741116100d357806370cf87411461018d57806373d4a13a146101ac57806380f43a59146101ca57806388695944146101e957610100565b80630f27531d1461010557806368cce67b146101215780636c0c1bcf1461013f5780636da576b71461016f575b600080fd5b61011f600480360381019061011a919061076c565b6102f1565b005b6101296103b1565b60405161013691906107c5565b60405180910390f35b6101596004803603810190610154919061080c565b6103be565b60405161016691906107c5565b60405180910390f35b6101776103e2565b60405161018491906107c5565b60405180910390f35b61019561041d565b6040516101a3929190610848565b60405180910390f35b6101b4610467565b6040516101c1919061090a565b60405180910390f35b6101d26104f5565b6040516101e092919061092c565b60405180910390f35b6101f161050c565b6040516101fe9190610971565b60405180910390f35b61020f61051f565b60405161021d92919061092c565b60405180910390f35b610240600480360381019061023b919061098c565b610598565b005b61025c60048036038101906102579190610a31565b6105ca565b005b61027860048036038101906102739190610a7e565b6105e0565b005b61028261061f565b60405161028f9190610ac6565b60405180910390f35b6102a0610632565b6040516102ae92919061092c565b60405180910390f35b6102bf610644565b6040516102cc9190610b22565b60405180910390f35b6102ef60048036038101906102ea919061080c565b61066a565b005b6040518060400160405280836fffffffffffffffffffffffffffffffff168152602001826fffffffffffffffffffffffffffffffff16815250600660008201518160000160006101000a8154816fffffffffffffffffffffffffffffffff02191690836fffffffffffffffffffffffffffffffff16021790555060208201518160000160106101000a8154816fffffffffffffffffffffffffffffffff02191690836fffffffffffffffffffffffffffffffff1602179055509050505050565b6000600460000154905090565b600181815481106103ce57600080fd5b906000526020600020016000915090505481565b6000600660000160009054906101000a90046fffffffffffffffffffffffffffffffff166fffffffffffffffffffffffffffffffff16905090565b60068060000160009054906101000a90046fffffffffffffffffffffffffffffffff16908060000160109054906101000a90046fffffffffffffffffffffffffffffffff16905082565b6000805461047490610b6c565b80601f01602080910402602001604051908101604052809291908181526020018280546104a090610b6c565b80156104ed5780601f106104c2576101008083540402835291602001916104ed565b820191906000526020600020905b8154815290600101906020018083116104d057829003601f168201915b505050505081565b600080600460000154600460010154915091509091565b600760159054906101000a900460ff1681565b600080600660000160009054906101000a90046fffffffffffffffffffffffffffffffff16600660000160109054906101000a90046fffffffffffffffffffffffffffffffff16816fffffffffffffffffffffffffffffffff169150806fffffffffffffffffffffffffffffffff169050915091509091565b604051806040016040528083815260200182815250600460008201518160000155602082015181600101559050505050565b8181600091906105db929190610677565b505050565b80600660000160006101000a8154816fffffffffffffffffffffffffffffffff02191690836fffffffffffffffffffffffffffffffff16021790555050565b600760149054906101000a900460ff1681565b60048060000154908060010154905082565b600760009054906101000a900473ffffffffffffffffffffffffffffffffffffffff1681565b8060046000018190555050565b82805461068390610b6c565b90600052602060002090601f0160209004810192826106a557600085556106ec565b82601f106106be57803560ff19168380011785556106ec565b828001600101855582156106ec579182015b828111156106eb5782358255916020019190600101906106d0565b5b5090506106f991906106fd565b5090565b5b808211156107165760008160009055506001016106fe565b5090565b600080fd5b600080fd5b60006fffffffffffffffffffffffffffffffff82169050919050565b61074981610724565b811461075457600080fd5b50565b60008135905061076681610740565b92915050565b600080604083850312156107835761078261071a565b5b600061079185828601610757565b92505060206107a285828601610757565b9150509250929050565b6000819050919050565b6107bf816107ac565b82525050565b60006020820190506107da60008301846107b6565b92915050565b6107e9816107ac565b81146107f457600080fd5b50565b600081359050610806816107e0565b92915050565b6000602082840312156108225761082161071a565b5b6000610830848285016107f7565b91505092915050565b61084281610724565b82525050565b600060408201905061085d6000830185610839565b61086a6020830184610839565b9392505050565b600081519050919050565b600082825260208201905092915050565b60005b838110156108ab578082015181840152602081019050610890565b838111156108ba576000848401525b50505050565b6000601f19601f8301169050919050565b60006108dc82610871565b6108e6818561087c565b93506108f681856020860161088d565b6108ff816108c0565b840191505092915050565b6000602082019050818103600083015261092481846108d1565b905092915050565b600060408201905061094160008301856107b6565b61094e60208301846107b6565b9392505050565b600060ff82169050919050565b61096b81610955565b82525050565b60006020820190506109866000830184610962565b92915050565b600080604083850312156109a3576109a261071a565b5b60006109b1858286016107f7565b92505060206109c2858286016107f7565b9150509250929050565b600080fd5b600080fd5b600080fd5b60008083601f8401126109f1576109f06109cc565b5b8235905067ffffffffffffffff811115610a0e57610a0d6109d1565b5b602083019150836001820283011115610a2a57610a296109d6565b5b9250929050565b60008060208385031215610a4857610a4761071a565b5b600083013567ffffffffffffffff811115610a6657610a6561071f565b5b610a72858286016109db565b92509250509250929050565b600060208284031215610a9457610a9361071a565b5b6000610aa284828501610757565b91505092915050565b60008115159050919050565b610ac081610aab565b82525050565b6000602082019050610adb6000830184610ab7565b92915050565b600073ffffffffffffffffffffffffffffffffffffffff82169050919050565b6000610b0c82610ae1565b9050919050565b610b1c81610b01565b82525050565b6000602082019050610b376000830184610b13565b92915050565b7f4e487b7100000000000000000000000000000000000000000000000000000000600052602260045260246000fd5b60006002820490506001821680610b8457607f821691505b602082108103610b9757610b96610b3d565b5b5091905056fea26469706673582212207998f99efa06946ce2f84bab643003cd0decbecc4a1e9072920593261f0c04c664736f6c634300080d0033",
  "immutableReferences": {},
  "source": "// SPDX-License-Identifier: MIT\npragma solidity >=0.4.22 <0.9.0;\n\ncontract Storage {\n\n    // see solidity documentation\n    bytes public data;\n\n    // see solidity documentation\n    uint256[] public uintarray;\n\n    struct Struct256 {\n        uint256 x;\n        uint256 y;\n    }\n\n    struct Struct128 {\n        uint128 x;\n        uint128 y;\n    }\n\n    uint256 storageSlot2 = type(uint256).max;\n    uint256 storageSlot3 = type(uint128).max;\n\n    // structs ALWAYS start a new storage slot\n    // bigStruct uses 2 full storage slots\n    Struct256 public bigStruct;\n    // smallStruct uses 1 full storage slot\n    Struct128 public smallStruct;\n\n    // next three are all saved in one storage slot\n    address public deployer = msg.sender;\n    bool public boolean = true;\n    uint8 public smallInt = type(uint8).max;\n\n    constructor(Struct256 memory _bigStruct, Struct128 memory _smallStruct) {\n        bigStruct = _bigStruct;\n        smallStruct = _smallStruct;\n    }\n\n    function setStruct256Both(uint256 x, uint256 y) external {\n        bigStruct = Struct256(x, y);\n    }\n\n    function setStruct256Single(uint256 x) external {\n        bigStruct.x = x;\n    }\n\n    function setStruct128Both(uint128 x, uint128 y) external {\n        smallStruct = Struct128(x, y);\n    }\n\n    function setStruct128Single(uint128 x) external {\n        smallStruct.x = x;\n    }\n    \n    function setData(bytes calldata longData) external {\n        data = longData;\n    }\n\n    function readBigStorageStructBoth() external view returns(uint256, uint256) {\n        return (bigStruct.x, bigStruct.y);\n    }\n\n    function readBigStorageStructSingle() external view returns(uint256) {\n        return bigStruct.x;\n    }\n\n    function readSmallStorageStructBoth() external view returns(uint256, uint256) {\n        return (smallStruct.x, smallStruct.y);\n    }\n\n    function readSmallStorageStructSingle() external view returns(uint256) {\n        return (smallStruct.x);\n    }\n}\n",
  "sourcePath": "C:\\Users\\thoms\\vs-repos\\truffle-sample\\contracts\\Storage.sol",
  "compiler": {
    "name": "solc",
    "version": "0.8.13+commit.abaa5c0e.Emscripten.clang"
  },
  "schemaVersion": "3.4.6",
  "updatedAt": "2022-06-23T09:56:49.897Z",
  "networkType": "ethereum",
  "devdoc": {
    "kind": "dev",
    "methods": {},
    "version": 1
  },
  "userdoc": {
    "kind": "user",
    "methods": {},
    "version": 1
  }
}